{
  "contractName": "Election",
  "abi": [
    {
      "inputs": [],
      "payable": false,
      "stateMutability": "nonpayable",
      "type": "constructor"
    },
    {
      "constant": false,
      "inputs": [
        {
          "internalType": "address",
          "name": "_add",
          "type": "address"
        }
      ],
      "name": "payment",
      "outputs": [],
      "payable": true,
      "stateMutability": "payable",
      "type": "function"
    },
    {
      "constant": false,
      "inputs": [
        {
          "internalType": "address",
          "name": "_recv",
          "type": "address"
        }
      ],
      "name": "addSeller",
      "outputs": [],
      "payable": false,
      "stateMutability": "nonpayable",
      "type": "function"
    }
  ],
  "bytecode": "0x608060405234801561001057600080fd5b5061018b806100206000396000f3fe6080604052600436106100295760003560e01c80633b92f3df1461002e578063d93fabfa14610072575b600080fd5b6100706004803603602081101561004457600080fd5b81019080803573ffffffffffffffffffffffffffffffffffffffff1690602001909291905050506100c3565b005b34801561007e57600080fd5b506100c16004803603602081101561009557600080fd5b81019080803573ffffffffffffffffffffffffffffffffffffffff169060200190929190505050610113565b005b60008190508073ffffffffffffffffffffffffffffffffffffffff166108fc349081150290604051600060405180830381858888f1935050505015801561010e573d6000803e3d6000fd5b505050565b806000806101000a81548173ffffffffffffffffffffffffffffffffffffffff021916908373ffffffffffffffffffffffffffffffffffffffff1602179055505056fea265627a7a72315820b6b63553eff44e838e949db82437f69f6f367e0fe7d4d2eb7d1fca5de9f88bd164736f6c63430005100032",
  "source": "pragma solidity >=0.4.22 <=0.8.12;\r\n\r\ncontract Election {\r\n    address payable sendto;\r\n    struct seller{\r\n        string name;\r\n        uint id_s;\r\n        address add;\r\n        bool exist_s;\r\n    }\r\n\r\n    constructor() public {\r\n    }\r\n    function payment(address _add) public payable{\r\n        address payable temp = address(uint160(_add));\r\n        temp.transfer(msg.value);\r\n        // candidates[candidatesCount].id =sendto.balance;  \r\n    }\r\n    function addSeller(address _recv) public{\r\n        sendto = address(uint160(_recv));\r\n        // candidates[candidatesCount].id = sendto;\r\n    }\r\n}\r\n",
  "sourcePath": "E:\\Krishn\\bits\\SEM 5\\blockchain1\\og-website\\contracts\\Election.sol",
  "compiler": {
    "name": "solc",
    "version": "0.5.16+commit.9c3226ce.Emscripten.clang"
  },
  "schemaVersion": "3.4.12",
  "updatedAt": "2023-03-03T16:08:44.139Z",
  "networkType": "ethereum",
  "devdoc": {
    "methods": {}
  },
  "userdoc": {
    "methods": {}
  }
}